:020000040000fa
:080000000001040000000000f3
:020000040000fa
:10020000ef8220000e7922000e018800000000001d
:100210000c000700e084200001002000110007000e
:10022000000020000000e000020032000000020098
:10023000000000001c020200000000000040da0084
:100240000000fe004440a900000020000000e00083
:100250000300320000002000a00188004440a800f4
:100260000000060091018800800078000000eb008b
:1002700015003700e280400032a0b4009101ba00be
:10028000e280400032a0b4009102ba00e280400057
:1002900032a0b4000002eb00472bde00f507b200ed
:1002a000602ce10004003a000059eb008301e900f2
:1002b000fdff3e00040037006128e100010032002c
:1002c0000082eb00040007001101ba000200e00008
:1002d000e8ff3a00000006003159ba008301e90046
:1002e0000c0032002159ba008301e90008003200f5
:1002f0000400e00003003a00e280400032a0b400b5
:10030000f5ff370011d9ba008301e900faff3a007e
:100310008100e800e180400032a0b4000000060047
:100320000000fa00e402a900e422a900e442a900c6
:10033000e462a900e4c2a900011c200091407800f9
:10034000c0cfb30000c060000014a000c0e1b7003f
:10035000210e80000000280000806000016f200056
:1003600001007000200e8800c801a800c821a80064
:10037000c841a800c881a800c8a1a800c8c1a80099
:10038000ca41a900c11c20009140780000ccb300f4
:1003900000c07000cce1b700c11c20009140780083
:1003a00000ccb30000c06000a040b300cce1b700b7
:1003b000d201a800d221a800d241a80080022000ca
:1003c0001008880005e1a800012a2000914078006b
:1003d00000ceb30000c07000a0e2b700a062a90088
:1003e0000000eb0010158800512a20009140780091
:1003f00000ceb30000c060000014a000a5e2b7006a
:10040000412a20009140780000ccb30000c0600079
:100410005040b300a4e2b700300128004015880026
:100420000000eb0050158800a1e2a80090e0a900b0
:100430000080fa00000006000000fa00b8ff070084
:10044000c1e1a900e0012000fe020700e602a800c9
:10045000803e2000fb020700e602a900e001200028
:10046000f8020700e622a800e0012000f5020700dc
:100470000000eb00b00e88000000eb00c00e88000a
:100480000000eb00d00e8800c1e1a800e0012000d0
:10049000ec020700e0c0b300cb0207007040880008
:1004a00080c0b300c80207008040880090c0b3003d
:1004b000c50207009040880030c0b300c2020700a8
:1004c000a0408800a000070036010700ae01070029
:1004d000440207000060fe000000370088c0bf0033
:1004e00001c8b300014060000004e0000d003200cc
:1004f000b00e800060088800c00e80007008880080
:10050000600880000000d10060088800700880004a
:100510000000d1007008880011e1a80013e1a800d4
:1005200088e0a90084c0bf000044b2000004e000dd
:100530000a00320011e1a90084c0a90080c0b30004
:10054000a102070030408800314080003038200090
:10055000808f500001003400c1e1a90084c0bf00b9
:1005600001c8b300014060000004e0000a0032004e
:1005700013e1a90084e0a90090c0b3009202070033
:10058000404088004140800030382000808f50007b
:1005900001003400c1e1a90084c0bf0068406000d0
:1005a0000004e0000e00320002c8bf000040e80076
:1005b00002e8b70003c8bf000040e80003e8b70046
:1005c000204080000000e8002040880000408000bb
:1005d0000000e800004088000060fe008460a90080
:1005e00001408000703e2000808f500023003600c4
:1005f00030c0b300740207005040880020c0b30030
:10060000710207006040880051408000803820005f
:10061000808f500004003c00614080008038200042
:10062000808f500002003400c1e1a80011003700a3
:1006300051408000604080008080500030062000e3
:10064000808f500002003400c1e1a800090037008b
:10065000514080006040800080805000c0f92f0031
:10066000808f500002003c00c1e1a800010037006b
:10067000000000000000eb00004088002180200006
:100680009140780000c2b30080cf500004003400d5
:100690002d0007003c0107000040eb0002e8b70016
:1006a00003c8bf00eb4f50000e00340030c0b30051
:1006b0004502070050408800ba0007005040800003
:1006c000a040880030c0b3003f02070050408800bf
:1006d000c401070050408000a04088000040eb00ab
:1006e00003e8b70021408000301f2000808f5000b9
:1006f0007aff3600504180000000e8005041880039
:10070000604180000000e8006041880051418000a5
:1007100090332000808f500002003400a03320006e
:10072000504188006141800040392000808f500096
:100730000200340050392000604188000000eb00c6
:100740002040880065ff37001000fa000000eb0031
:10075000700798006000b800500798006107980083
:100760006000b80030079800410798006000b800aa
:10077000008fbe0050c0b30013020700200798008e
:10078000714080002e009000010050000080e900c0
:1007900000004000200798002e0090000000e000bc
:1007a00002003c000000eb0020079800514180004f
:1007b0002e00900000805000700798007e0090008e
:1007c000cf80de004409dd00cc00de008100710036
:1007d0004400dd0050079800610798005e0190001a
:1007e000ee019000f0792d0001002000800f5100f3
:1007f000818f590004003400007a2d000100200090
:1008000050079800610798005e019000ee0190008b
:1008100000862200f1ff2f00800f5100818f5900c8
:1008200004003c0000862200f1ff2f0050079800d2
:10083000610798007e0090006101b900b04080001f
:10084000c14080000200400083804800f0408800e2
:1008500001418800f240800003418000f0792d00c2
:1008600001002000800f5100818f590004003400e6
:10087000007a2d0001002000f0408800014188002e
:10088000f24080000341800000862200f1ff2f002b
:10089000800f5100818f590004003c000086220027
:1008a000f1ff2f00f040880001418800f0408000f7
:1008b00001418000b0408800c1408800f0408000c5
:1008c0000141800030079800410798003e019000e8
:1008d000ce019000f0792d0001002000800f510022
:1008e000818f590004003400007a2d00010020009f
:1008f00030079800410798003e019000ce0190001b
:1009000000862200f1ff2f00800f5100818f5900d7
:1009100004003c0000862200f1ff2f003007980001
:10092000410798005e009000ee0090003e019000ac
:10093000ce019000021f400003974800f0792d007f
:1009400001002000be0f1000ae8f1800030034001d
:10095000007a2d0001002000008fbe0000862200da
:10096000f1ff2f00be0f1000ae8f180003003c00f7
:1009700000862200f1ff2f00008fbe001e00be0087
:100980004b09dd004500de0000007100c588de0077
:10099000008fbe001e007800304188000080fa0001
:1009a000000006000c00fa000000eb005007980061
:1009b0006000b80030079800410798006000b80058
:1009c000008fbe0080c0b3007f01070020079800a1
:1009d000814080002e009000010050000000400087
:1009e000200798002e0090000000e00002003c006c
:1009f0000000eb0020079800314180002e0090009d
:100a000000805000500798005e0090006103b9001c
:100a100086007800400220000009b8006030b9006c
:100a200003027800000242004002200000b8b90032
:100a300000024200840178003207980043079800c2
:100a40003e019000ce019000f0792d0001002000c1
:100a5000800f5100818f590004003400007a2d006e
:100a60000100200030079800410798003e019000e7
:100a7000ce01900000862200f1ff2f00800f510070
:100a8000818f590004003c0000862200f1ff2f00f6
:100a900030079800410798003e009000ce0090007b
:100aa000008fbe00f0792d0001002000be0f100065
:100ab000ae8f180003003400007a2d0001002000e2
:100ac000008fbe0000862200f1ff2f00be0f100035
:100ad000ae8f180003003c0000862200f1ff2f00bb
:100ae000008fbe00007a2d00010020001e0f400084
:100af0005e9748001e00be004b09dd004500de0089
:100b000000007100c588de00008fbe0051418000ea
:100b100090332000808f5000070034005140800047
:100b2000a0408000008050004300dd00cf80de0048
:100b30001e1f10001e9718001e00be00e00f500080
:100b4000e08f580002003c006000b800008fbe003b
:100b500090d7200001002000be0f1000ae8f1800bb
:100b600003003400a0d7200001002000008fbe0049
:100b7000ff3ffc001e007800b00e88000000fc0063
:100b80000080fa00000006001000fa000000eb00f0
:100b9000700798006000b80050079800610798003f
:100ba0006000b80030079800410798006000b80066
:100bb000008fbe0060c0b30003010700200798004b
:100bc000714080002e009000010050000080e9007c
:100bd00000004000200798002e0090000000e00078
:100be00002003c000000eb002007980061418000fb
:100bf0002e00900000805000700798007e0090004a
:100c0000cf80de004409dd00cc00de0081007100f1
:100c10004400dd0050079800610798005e019000d5
:100c2000ee019000f0792d0001002000800f5100ae
:100c3000818f590004003400007a2d00010020004b
:100c400050079800610798005e019000ee01900047
:100c500000862200f1ff2f00800f5100818f590084
:100c600004003c0000862200f1ff2f00500798008e
:100c7000610798007e0090006101b900d0408000bb
:100c8000e14080000200400083804800104188005d
:100c9000214188001241800023418000f0792d001d
:100ca00001002000800f5100818f590004003400a2
:100cb000007a2d00010020001041880021418800a9
:100cc000124180002341800000862200f1ff2f00a6
:100cd000800f5100818f590004003c0000862200e3
:100ce000f1ff2f0010418800214188001041800051
:100cf00021418000d0408800e14088001041800000
:100d00002141800030079800410798003e01900083
:100d1000ce019000f0792d0001002000800f5100dd
:100d2000818f590004003400007a2d00010020005a
:100d300030079800410798003e019000ce019000d6
:100d400000862200f1ff2f00800f5100818f590093
:100d500004003c0000862200f1ff2f0030079800bd
:100d6000410798005e009000ee0090003e01900068
:100d7000ce019000021f400003974800f0792d003b
:100d800001002000be0f1000ae8f180003003400d9
:100d9000007a2d0001002000008fbe000086220096
:100da000f1ff2f00be0f1000ae8f180003003c00b3
:100db00000862200f1ff2f00008fbe001e00be0043
:100dc0004b09dd004500de0000007100c588de0033
:100dd000008fbe001e007800404188000080fa00ad
:100de000000006000c00fa000000eb00500798001d
:100df0006000b80030079800410798006000b80014
:100e0000008fbe0090c0b3006f000700200798005d
:100e1000914080002e009000010050000000400032
:100e2000200798002e0090000000e00002003c0027
:100e30000000eb0020079800414180002e00900048
:100e400000805000500798005e0090006103b900d8
:100e500086007800400220000009b8006030b90028
:100e600003027800000242004002200000b8b900ee
:100e7000000242008401780032079800430798007e
:100e80003e019000ce019000f0792d00010020007d
:100e9000800f5100818f590004003400007a2d002a
:100ea0000100200030079800410798003e019000a3
:100eb000ce01900000862200f1ff2f00800f51002c
:100ec000818f590004003c0000862200f1ff2f00b2
:100ed00030079800410798003e009000ce00900037
:100ee000008fbe00f0792d0001002000be0f100021
:100ef000ae8f180003003400007a2d00010020009e
:100f0000008fbe0000862200f1ff2f00be0f1000f0
:100f1000ae8f180003003c0000862200f1ff2f0076
:100f2000008fbe00007a2d00010020001e0f40003f
:100f30005e9748001e00be004b09dd004500de0044
:100f400000007100c588de00008fbe006141800096
:100f500040392000808f500007003400514080004d
:100f6000a0408000008050004300dd00cf80de0004
:100f70001e1f10001e9718001e00be00e00f50003c
:100f8000e08f580002003c006000b800008fbe00f7
:100f900090d7200001002000be0f1000ae8f180077
:100fa00003003400a0d7200001002000008fbe0005
:100fb000ff3ffc001e007800c00e88000000fc000f
:100fc0000080fa00000006000200fa00004f7800de
:100fd000ff3ffc001e4078006f4060006f416000e2
:100fe000612a20009140780000cfb30000c060006b
:100ff00002407000a6e2b7001e4078006f4060001b
:101000006f416000712a20009140780000cfb3004a
:1010100000c0600002407000a7e2b700a022a80054
:10102000a0c2bf00614060000004e000fcff32008d
:10103000a002a9000000fc00001480000080fa005b
:10104000000006000600fa00200798000000eb00f0
:10105000000f78000c0037000000eb00100798002c
:10106000040037000060fe001e0090000000e80051
:10107000100798009e009000e0822600808f5000ac
:10108000f8ff36001e0fe8002e0090009e0f1000a3
:0c109000f1ff39000080fa0000000600ab
:020000040000fa
:0200000401f009
:04000000f7ff000006
:020000040000fa
:0200000401f009
:04000400c0ff000039
:020000040000fa
:0200000401f009
:04000800cfff000026
:020000040000fa
:1000080076080000760800007608000076080000f0
:1000180076080000760800007608000076080000e0
:1000280076080000760800007608000076080000d0
:1000380076080000760800007608000076080000c0
:1000480076080000760800007608000076080000b0
:1000580076080000760800007608000076080000a0
:100068007608000076080000760800007608000090
:100078007608000076080000760800007608000080
:100088007608000076080000760800007608000070
:100098007608000076080000760800007608000060
:1000a8007608000076080000760800007608000050
:1000b8007608000076080000760800007608000040
:1000c8007608000076080000760800007608000030
:1000d8007608000076080000760800007608000020
:1000e8007608000076080000760800007608000010
:0800f800760800007608000004
:020000040000fa
:1001080076080000760800007608000076080000ef
:1001180076080000760800007608000076080000df
:1001280076080000760800007608000076080000cf
:1001380076080000760800007608000076080000bf
:1001480076080000760800007608000076080000af
:10015800760800007608000076080000760800009f
:10016800760800007608000076080000760800008f
:10017800760800007608000076080000760800007f
:10018800760800007608000076080000760800006f
:10019800760800007608000076080000760800005f
:1001a800760800007608000076080000760800004f
:1001b800760800007608000076080000760800003f
:1001c800760800007608000076080000760800002f
:1001d800760800007608000076080000760800001f
:1001e800760800007608000076080000760800000f
:0801f800760800007608000003
:020000040000fa
:10109c00000800002e00000002000000000000000c
:1010ac000000000000000000000000000000000034
:1010bc000000000000000000000000000000000024
:1010cc000000000000000000000000000000000014
:1010dc000000000086f28600f20000000000000014
:020000040000fa
:0810ec000040da000000fe00e4
:00000001FF
